:020000040800F2
:100000008875002065030008E34F0008DD460008FE
:10001000E14F0008290B00081978000800000000D3
:10002000000000000000000000000000A502000821
:10003000B30F00080000000001030008B1570008DA
:100040007F0300087F0300087F0300087F03000888
:100050007F0300087F0300087F0300087F03000878
:100060007F0300087F0300087F0300087F03000868
:100070007F0300087F0300087F0300087F03000858
:100080001D0C0008290C00087F030008750B0008F0
:10009000690B00087F0300087F0300087F03000846
:1000A0007F0300087F0300087F0300087F03000828
:1000B000915800087F0300087F0300087F030008B1
:1000C0007F0300087F0300087F0300087F03000808
:1000D0007F030008C55E00080D5F00087F0300086D
:1000E0007F0300087F0300087F0300087F030008E8
:1000F0007F0300087F0300087F0300087F030008D8
:100100007F0300087F0300087F0300087F030008C7
:100110007F0300087F0300087F0300087F030008B7
:100120007F0300087F030008350C00087F030008E8
:100130007F0300080000000000000000C90B000859
:10014000BD0B00087F0300087F0300086951000809
:100150007F0300087F030008410C00087F030008AC
:100160007F0300087F0300087F0300087F03000867
:100170007F0300087F0300087F03000800000000E1
:10018000000000007F0300080000000000000000E5
:100190007F03000800000000000000007F0300084B
:1001A0000000000000000000000000007F030008C5
:1001B0007F0300087F0300087F0300087F03000817
:1001C0007F03000800F002F800F05CF80AA090E855
:1001D000000C82448344AAF10107DA4501D100F002
:1001E00051F8AFF2090EBAE80F0013F0010F18BF73
:1001F000FB1A43F0010318479C900000BC900000DC
:100200000A444FF0000C10F8013B13F0070408BF3C
:1002100010F8014B1D1108BF10F8015B641E05D0DA
:1002200010F8016B641E01F8016BF9D113F0080F8F
:100230001EBF10F8014BAD1C0C1B09D16D1E58BF21
:1002400001F801CBFAD505E014F8016B01F8016B58
:100250006D1EF9D59142D6D37047000000230024CB
:1002600000250026103A28BF78C1FBD8520728BFC6
:1002700030C148BF0B6070471FB508F01AFE1FBDA4
:1002800010B510BD00F0A6F91146FFF7F5FF07F015
:10029000BBFC00F0C4F903B4FFF7F2FF03BC00F0AD
:1002A000CBF900002C4B19680868B0E8F04F80F3D8
:1002B0000988BFF36F8F4FF0000080F311887047FB
:1002C0000000000008480068006880F308884FF0CC
:1002D000000080F3148862B661B6BFF34F8FBFF39E
:1002E0006F8F00DF00BF00BF08ED00E0DFF80C00FB
:1002F000016841F470010160704700BF88ED00E0C3
:10030000EFF30980BFF36F8F134B1A681EF0100FC5
:1003100008BF20ED108A20E9F04F106009B44FF0BB
:10032000500080F31188BFF34F8FBFF36F8F08F039
:1003300071F94FF0000080F3118809BC1968086852
:10034000B0E8F04F1EF0100F08BFB0EC108A80F339
:100350000988BFF36F8F704778020020EFF30580A4
:10036000704700000948804709480047FEE7FEE75C
:10037000FEE7FEE7FEE7FEE7FEE7FEE7FEE7FEE755
:1003800004480549054A064B7047000075580008A7
:10039000C50100088869002088750020886D00204C
:1003A000886D002053EA020C00F069802DE9F04BC3
:1003B0004FF00006002B1FBFB3FA83F503FA05F4D4
:1003C00024FA05F65E4012BF1643B2FA82F502FA2D
:1003D00005F4C5F120051EBF22FA05FC44EA0C0411
:1003E000203556EA044C4FEA144418BF641C4FF001
:1003F00000084FF00009904271EB030C39D300293B
:1004000019BFB1FA81F701FA07F6B0FA80F700FADE
:1004100007F6C7F120071EBF20FA07FC46EA0C06C4
:100420002037B6FBF4FCA7EB0507103F07F01F0BC6
:10043000CBF120060CFA0BFB2CFA06F644BFB346B0
:100440000026202FA4BF5E464FF0000B5BEA060C8F
:1004500008BF4FF0010B19EB0B09ABFB027C48EB1B
:100460000608C01B06FB02CC0BFB03CC71EB0C0196
:10047000C1E70B46024641464846BDE8F08B13B53E
:100480004FF000004FF00001AFF30080BDE81C40CA
:100490007047032A40F2308010F0030C00F0158002
:1004A00011F8013BBCF1020F624498BF11F801CB77
:1004B00000F8013B38BF11F8013BA2F1040298BFDC
:1004C00000F801CB38BF00F8013B11F0030300F046
:1004D0002580083AC0F0088051F8043B083A51F8EA
:1004E00004CBA0E80810F5E7121D5CBF51F8043BEF
:1004F00040F8043BAFF30080D20724BF11F8013B62
:1005000011F801CB48BF11F8012B24BF00F8013BC3
:1005100000F801CB48BF00F8012B704710B5203A16
:10052000C0F00B80B1E81850203AA0E81850B1E8AC
:100530001850A0E81850BFF4F5AF5FEA027C24BF62
:10054000B1E81850A0E8185044BF18C918C0BDE859
:1005500010405FEA827C24BF51F8043B40F8043B22
:1005600008BF7047D20728BF31F8023B48BF11F8D7
:10057000012B28BF20F8023B48BF00F8012B704731
:100580004FF0000200B5134694469646203922BF2C
:10059000A0E80C50A0E80C50B1F12001BFF4F7AF77
:1005A000090728BFA0E80C5048BF0CC05DF804EB59
:1005B000890028BF40F8042B08BF704748BF20F8C7
:1005C000022B11F0804F18BF00F8012B70477047C5
:1005D00070477047754600F02BF8AE460500694637
:1005E000534620F00700854618B020B5FFF7C8FE37
:1005F000BDE820404FF000064FF000074FF0000824
:100600004FF0000B21F00701AC46ACE8C009ACE8A4
:10061000C009ACE8C009ACE8C0098D46704710B508
:100620000446AFF300802046BDE81040FFF733BE1C
:10063000004870472469002001491820ABBEFEE73E
:100640002600020070470000464910B54A6822F4AF
:1006500040324A604A6843681A434A6001684A68FF
:1006600022F480724A6001684A68036942EA032200
:100670004A6001684A6822F040724A6001684A682C
:1006800083681A434A6001688A6822F400628A60BB
:1006900001688A68C3681A438A60816A6FF0706271
:1006A000D14201688A6822F070628A6001688A68B3
:1006B0000CD0836A1A438A6001688A6822F040522B
:1006C0008A6001688A68C36A1A4301E022F04052D6
:1006D0008A6001688A6822F002028A6001688A687A
:1006E000037E42EA43028A6090F8201000290168E4
:1006F0004A680FD042F400624A6001684A6822F4F6
:1007000060424A6001684A68174C436A04EB43330D
:100710001A4301E022F400624A600168CA6A22F4C6
:100720007002CA620168CA6A838B104C04EB0353DF
:100730001A43CA6201688A6822F400728A600168FA
:100740008A6890F8303042EA43228A6001688A68F9
:1007500022F480628A6001688A68406942EA8020E7
:10076000886010BD0023014000E0FFFF0000F0FFA3
:100770002DE9F0416F487049027891ED000A6F4809
:1007800022B1D0ED050A30EE200A06E06C4A12785C
:100790002AB1D0ED050A30EE600A81ED000A694AFF
:1007A000D2ED000AB4EEE00AF1EE10FA01DDB0EE8F
:1007B000600A654A81ED000AD2ED000AB4EEE00A53
:1007C000F1EE10FA01D2B0EE600A81ED000A5F4945
:1007D0005F4C0978D4ED000A21B190ED061A70EE55
:1007E000810A06E05B49097829B190ED061A70EE9E
:1007F000C10AC4ED000A5849B0EE601AD1ED000AF2
:10080000B4EEE01AF1EE10FA01DCF0EE410A5349C1
:10081000C4ED000A91ED001AF4EEC10AF1EE10FAEF
:1008200001D2F0EE410A4E494E4DC4ED000A09785E
:10083000D5ED000A21B190ED061A70EE810A06E0AE
:100840004949097829B190ED061A70EEC10AC5ED43
:10085000000A464991ED001AF4EEC10AF1EE10FAD1
:1008600001DDF0EE410A4249C5ED000A91ED001AA2
:10087000F4EEC10AF1EE10FA01D2F0EE410A3D4960
:100880003D4EC5ED000A0978D6ED000A21B190ED84
:10089000041A70EE810A06E03849097829B190ED12
:1008A000041A70EEC10AC6ED000A3548B0EE601AAF
:1008B000D0ED000AB4EEE01AF1EE10FA01DCF0EE31
:1008C000410A3048C6ED000A90ED001AF4EEC10A64
:1008D000F1EE10FA01D2F0EE410AC6ED000A40F244
:1008E0000117F6EE000A384604F0FCFC012007F080
:1008F000D7F9F6EE000A94ED000A384604F02AFD16
:10090000012007F0CDF9F6EE000A95ED000A781CFB
:1009100004F020FD012007F0C3F9F6EE000A96ED81
:10092000000AB81C04F016FDBDE8F041012007F0F4
:10093000B7B900006C0200201C020020B4010020A6
:100940006D0200202C0200203002002068020020EE
:10095000200200206902002034020020380200201A
:100960007302002024020020750200203C020020B7
:10097000400200206A020020280200206B020020B2
:10098000440200204802002070B5584890ED000A4B
:100990009FED572A20EE021ADFED560A564C5748B3
:1009A00081EE200A84ED070A90ED001A544821EEEA
:1009B000021AC1EE201AC4ED081A90ED001A51482F
:1009C00061EE022A82EEA01A84ED091AD0ED002A07
:1009D0004D4862EE822A82EEA02A84ED0A2AD0EDEA
:1009E000000AB4EEE00AF1EE10FA01DDB0EE600AA2
:1009F000464884ED070AD0ED000AB4EEE00AF1EEB5
:100A000010FA01D2B0EE600A414884ED070AD0ED39
:100A1000000AF4EEE01AF1EE10FA01DDF0EE601AD1
:100A20003C48C4ED081AD0ED000AF4EEE01AF1EEED
:100A300010FA01D3F0EE610A3748C4ED080AD0ED90
:100A4000000AB4EEE01AF1EE10FA01DDB0EE601A21
:100A5000324884ED091AD0ED000AB4EEE01AF1EE46
:100A600010FA01D3F0EE410A2D48C4ED090AD0ED89
:100A7000000AB4EEE02AF1EE10FA01DDB0EE602AD1
:100A8000284884ED0A2AD0ED000AB4EEE02AF1EEFF
:100A900010FA01D3F0EE420AC4ED0A0A40F2011541
:100AA000F6EE000A284604F01DFC012007F0F8F8D5
:100AB000F6EE000A94ED080A284604F04BFC0120EB
:100AC00007F0EEF8F6EE000A94ED090A681C04F04F
:100AD00041FC012007F0E4F894ED0A0AA81CBDE8E7
:100AE0007040F6EE000A04F035BC0000F001002072
:100AF000C3F54840000034C3B4010020F4010020D5
:100B0000F8010020FC0100202C020020300200200F
:100B100034020020380200203C0200204002002065
:100B20004402002048020020FEE7000000B58BB020
:100B300000200121CDE9060105900090019002906E
:100B4000039004900E20CDE908106946054800F096
:100B500061FC0221034800F0DDFB024801F07CF853
:100B60000BB000BD80060020014800F04EBD000023
:100B700080060020014800F048BD000080060020EB
:100B800000B58BB001220E2100200792CDE905109F
:100B900003900490CDE908210090019002906946ED
:100BA000054800F037FC0221034800F0B3FB02487F
:100BB00001F052F80BB000BDA8060020014800F07B
:100BC00024BD0000A8060020014800F01EBD000062
:100BD000A8060020002070470020704710B50022B2
:100BE0000449054805F02AFB0449034805F020FBA9
:100BF000002010BDD0180020000C0020D0100020D4
:100C000010B50146034805F013FB024805F0F5FA5C
:100C1000002010BD000C002000207047014801F0AA
:100C2000A7B80000680A0020014801F0A1B8000040
:100C3000C80A0020014801F09BB80000A809002064
:100C4000014801F095B80000080A00202DE9F04F96
:100C500085680024099E802D18D0894DC563894D73
:100C6000456490F83450012D15D0012580F834509A
:100C700090F83550012D10D0002180F83410022456
:100C8000002180F834102046BDE8F08F4FF48071C9
:100C900041650120F8E70220F6E7022580F835508B
:100CA0000025456505682F6847F480272F60056893
:100CB0002B6103685E608368402B03682AD09960CB
:100CC0000168CA60714D704E704FDFF8BC81DFF86B
:100CD000B891DFF8B8A1DFF8B4B1EA14DFF8A8E101
:100CE0000168183630379302A9F148090AF1600A01
:100CF0000BF1180BAEF1300E4FF0006C41452DD9C1
:100D0000A94205D0494503D0514501D0B14205D192
:100D1000202220E09A600268D160D3E759451AD0BA
:100D2000714518D0594D7835A94214D0564D3035FB
:100D3000A94210D0B9420BD0534A183A914207D079
:100D4000524A9032914203D04F4A4832914201D1E7
:100D50001A4600E062464C494C392EE0DFF82C81FF
:100D600008F1A80841452AD9A94205D0494503D030
:100D7000514501D0B14201D120221CE059451AD081
:100D8000714518D0414D7835A94214D03E4D3035CB
:100D9000A94210D0B9420BD03B4A183A914207D031
:100DA0003A4A9032914203D0374A4832914201D1B7
:100DB0001A4600E06246344950390A605AE0DFF8CA
:100DC000CC8008F1480841452AD9A94205D04945B7
:100DD00003D0514501D0B14201D120221CE0594538
:100DE0001AD0714518D0294D7835A94214D0264D16
:100DF0003035A94210D0B9420BD0234A183A91425B
:100E000007D0224A9032914203D01F4A4832914281
:100E100001D11A4600E062461C491039CA6029E037
:100E2000A94205D0494503D0514501D0B14201D175
:100E300020221CE059451AD0714518D0134D783541
:100E4000A94214D0104D3035A94210D0B9420BD070
:100E50000D4A183A914207D00C4A9032914203D081
:100E6000094A4832914201D11A4600E062460749D8
:100E700010398A6001680A6842F001020A60FFE6E0
:100E8000B17B0008DD7B000858640240106002401E
:100E900001681823CAB2103AB2FBF3F2054B6FF3A4
:100EA0000901032A9B5CC36500D9091D81650846B9
:100EB00070470000388F000810B5014600208B698C
:100EC0008A6A4FF0C07453B1B3F5005F15D072B1A8
:100ED000012A0CD0022A0AD0032A09D104E01AB14F
:100EE000012A06D0022A03D1C96AC90100D501200E
:100EF00010BDC96AA142FAD010BD002AF7D0012A5C
:100F0000F2D0022AF3D0032AF3D010BD30B5046822
:100F1000256825F480252560046863608368402B7C
:100F2000036803D099600068C26030BD9A600068B1
:100F3000C16030BD70B586B0012006F0B1FEFF245F
:100F4000FC2501940294CDE90345A61C23462246C4
:100F500021463046009400F06DF8012006F0A0FE16
:100F6000FF2301940294CDE903451A461946D81C83
:100F7000009400F05FF8012006F092FEFF23019438
:100F80000294CDE903451A461946181D009400F055
:100F900051F8012006F084FE01940294FF23CDE96C
:100FA00003451A4619463046009400F00BF806B087
:100FB00070BD704701B5009801E0401E0090002808
:100FC000FBD108BD2DE9F04106AC94E8E050174C88
:100FD000206000206060A060E06008202061217631
:100FE0006276A376E5762677677784F81EC084F864
:100FF0001FE004F11802012314460C490C4800F0CC
:101000009BF900280FD0022322460849084800F027
:1010100093F9002807D02246BDE8F0410423034994
:10102000034800F089B9BDE8F0810000682A00207B
:10103000800600202DE9F04708ACDFF8688094E8CE
:10104000E0120124A8F80040174C206000206060E6
:10105000A060E0600820206121766276A376E576C4
:101060002677677784F81E9084F81FC004F1180271
:10107000012314460C490D4800F05EF900280FD0FA
:10108000022322460849094800F056F9002807D0F3
:101090002246BDE8F04704230349044800F04CB958
:1010A000BDE8F08750020020882A0020A806002012
:1010B00072B6FEE710B558B1084C491E0BD310F8B4
:1010C000013B5340DBB234F8133083EA1222F4E7D9
:1010D0004FF6FF7010BD104610BD00006290000872
:1010E00010B5054C04E000BF10F8013B5340E25C32
:1010F000491EF9D2104610BD628F000878B5002451
:10110000009490F83C20012A19D0012280F83C205C
:101110000A6807230568092A13D9EE680A3A02EB20
:10112000420293409E43EE600B788A680A3B03EBD1
:1011300043039A400368DD682A43DA6010E0022026
:1011400078BD2E6902EB420293409E432E610B78DC
:101150008A6803EB43039A4003681D692A431A61B6
:101160004A681F23072A13D205686E6B521E02EBD2
:10117000820293409E436E630A8893B20A79521E9C
:1011800002EB820293400268556B2B43536327E0C6
:1011900005680D2A12D22E6BD21F02EB82029340F9
:1011A0009E432E630B790A88DB1F92B203EB830305
:1011B0009A4003681D6B2A431A6311E0EE6A0D3AE8
:1011C00002EB820293409E43EE620B790A880D3B4C
:1011D00092B203EB83039A400368DD6A2A43DA6222
:1011E0001B4B0568194A9D420AD10D68122D07D183
:1011F000556825F400055560556845F4800555602F
:1012000005689D421DD1134D0B68AB4201D0112BD7
:1012100017D1536823F480035360536843F40003E9
:1012200053600968A9420CD10B490C4A0968B1FB0B
:10123000F2F101EB8101490000E0491E0091002913
:10124000FBD180F83C40002078BD00000023014025
:1012500000200140120000109C00002040420F00BE
:1012600070B504004FF0000503D0206C002610B1CB
:1012700007E0012070BD204600F01CF8666484F889
:101280003C60206CC00610D4206C20F4885040F0E4
:10129000020020642046FFF7D7F96664206C20F036
:1012A000020040F00100206400E0012584F83C6069
:1012B000284670BD10B586B0044614216846FFF775
:1012C0005FF91149206888421BD11048002102684B
:1012D00042F480720260006800F4807005900B4850
:1012E0001438026842F001020260006800F0010058
:1012F000059003200090CDE901016946044800F003
:10130000BBFE06B010BD0000002001404438024082
:101310000000024090F82020012A07D0022A05D0C0
:10132000416A41F4802141620120704700684269AE
:101330000A43426100207047F0B590F820500468DD
:10134000A468012D05D0022D03D0416A41F480210B
:101350005DE014F0406F01D1E50055D5C4F30164A0
:10136000022C03D9416A41F4000150E00125A54057
:101370001D608D684FF4C0739DB1CE6835434E68D3
:1013800045EAC605066803EB0417F5514FF4C2752C
:10139000076805EB04150E697E51097D012905D00A
:1013A00009E00E88CD6845EA4655EBE701684E59DD
:1013B00046F480764E511179D579567941EA056126
:1013C00095792D0445EA062529434FF4C67605682C
:1013D00006EB0416A9511178D57841EA0561957894
:1013E00052782D0445EA022211434FF4C475026875
:1013F00005EB04155151006803EB0411425842F00B
:10140000010242500020F0BD416A41F400114162E6
:101410000120F0BD10B590F82020012A07D0022A43
:1014200005D0416A41F480214162012010BD3B4852
:10143000D0F8002242F00102C0F80022D0F80022C9
:1014400022F47C52C0F80022D0F800224B6A42EA13
:101450000322C0F800220A7D02F01F0301229A40F5
:10146000D0F81C329343C0F81C32CB69B3B9D0F822
:101470000C329343C0F80C328C894B6864F31F43E1
:101480004C6900EBC404C4F840320C890B6864F367
:101490001F434C6900EBC404C4F84432CB69012BF0
:1014A00016D1D0F80C321343C0F80C320C884B68BC
:1014B00064F31F434C6900EBC404C4F840320C8948
:1014C000CB6864F31F434C6900EBC404C4F8443296
:1014D0008B69002BD0F804320ED01343C0F80432CD
:1014E0000B69002BD0F8143208D01343C0F8143223
:1014F000096A012904D008E09343EFE79343F5E735
:10150000D0F81C121143C0F81C12D0F8001221F0C0
:101510000101C0F80012002010BD0000006400406E
:10152000704730B590F82040012C05D0022C03D034
:10153000416A41F480215DE00468002955D02469A6
:10154000A40754D04FF4D874056804EB01142D5946
:1015500015F00405956005682D594ED0ED085560CD
:1015600005682C5904F00204D4604FF4DA7405685D
:1015700004EB01142D5905F00F05156105682D596F
:10158000C5F30725956105682C59240C54614FF467
:10159000DC72046802EB0112A4581C700468A458A1
:1015A000240A5C700468A458240C9C700468A25837
:1015B000120EDA704FF4DE72046802EB0112A458C6
:1015C0001C710468A458240A5C710468A458240C93
:1015D0009C710468A258120EDA71006881B1016929
:1015E00041F020010161002030BDE468A8E7416AB4
:1015F00041F400114162012030BD6D0D1560AFE76F
:10160000C16841F02001C160EDE72DE9F05F0546BA
:10161000006800244669D0F804908768D0F80CB0C0
:10162000D0F810A0D0F81880F10748D0F90714D0EE
:1016300001218160B80703D5284600F03AFB0CE091
:10164000780702D54FF4006407E0380702D54FF45D
:10165000805402E0284600F02BFBF80516D52968D7
:101660004FF480708860B80503D5284600F023FB4E
:101670000CE0780502D544F4005407E0380502D5A3
:1016800044F4804402E0284600F014FBF80316D529
:1016900029684FF480308860B80303D5284600F0ED
:1016A0000CFB0CE0780302D544F4004407E0380357
:1016B00002D544F4803402E0284600F0FDFA3007F9
:1016C00007D55FEACB6004D52968102044F4007484
:1016D000C86070074FF0080707D55FEA0B7004D5A4
:1016E0002868C760284600F0ADF9B00706D528681D
:1016F000C068800702D0284600F0A6F9700607D51A
:101700005FEACA6004D52968102044F48064086147
:10171000B00607D55FEA0A7004D528680761284635
:1017200000F096FAF00606D528680069800702D016
:10173000284600F08EFAB00308D55FEAC96005D5E7
:10174000296810204860284600F084FAF00307D585
:101750005FEA097004D528684760284600F0AEFAB1
:10176000300446D55FEA497040D5F00504D55FEAFC
:10177000C87001D044F00104B00504D55FEA887058
:1017800001D544F00204700504D55FEA487001D524
:1017900044F00404300529D518F0700F26D008F065
:1017A0007000402815D006DC102809D020280AD067
:1017B000302816D10AE050280ED0602811D10EE052
:1017C00044F008040DE044F010040AE044F0200462
:1017D00007E044F0400404E044F0800401E044F4F5
:1017E00080742868816921F0700181612968042072
:1017F0004860002C05D0686A204368622846FFF7DD
:101800008FFEBDE8F09F70B5040003D094F820006F
:1018100010B104E0012070BD204600F081F820687E
:10182000016821F00201016000F00CFD054605266B
:1018300004E000F007FD401B0A2811D8206840682A
:101840008007F6D42068016841F00101016000F0D2
:10185000F9FC05460BE000F0F5FC401B0A2806D910
:10186000606A40F40030606284F82060D2E720684B
:101870004068C007EFD0207E0128206801683DD075
:1018800021F080010160607E01282068016838D065
:1018900021F040010160A07E01282068016833D05A
:1018A00021F020010160E07E0128206801682ED02F
:1018B00041F010010160207F01282068016829D0D3
:1018C00021F008010160607F01282068016824D0B0
:1018D00021F004010160D4E902010843D4E90412B3
:1018E000114308436168491E08432168C86100200C
:1018F0006062012084F82000002070BD41F080016A
:10190000C0E741F04001C5E741F02001CAE721F0FE
:101910001001CFE741F00801D4E741F00401D9E715
:101920002DE9F04387B0044614216846FEF728FEEF
:10193000404B4148DFF8F8801968D4F800C03E4AAF
:10194000022503260927DFF8F49010300024491CF3
:10195000C4452CD11960012907D1016841F00071FB
:101960000160006800F000700590106840F002000F
:101970001060106802AB00F0020005904FF4407058
:10198000CDE9000583E8D0006946484600F074FBC5
:1019900000220521132000F021FE132000F010FE8C
:1019A00000220521142000F019FE14203BE0DFF88E
:1019B0009080C44539D1D0F800C04CF0806CC0F89C
:1019C00000C0D0F800C001290CF0806CCDF814C024
:1019D000196007D1016841F000710160006800F0F2
:1019E00000700590106840F002001060106802ABB3
:1019F00000F0020005904FF44050CDE9000583E867
:101A0000D0006946484600F037FB002205213F2000
:101A100000F0E4FD3F2000F0D3FD0022052140202E
:101A200000F0DCFD402000F0CBFD07B0BDE8F08306
:101A300000640040180000203038024000040240DA
:101A400000680040704700002DE9F0417B4C0168C0
:101A50000746794A04F11C000126794D80469142DF
:101A600048D10346224600213846FFF75AFDE8BB1D
:101A7000207F012821D1B4F81D0004F1240240BACE
:101A80001060E17FF2EE090A0B0194F82010BAEE23
:101A9000090A43EA1113536094F8213001F00F0151
:101AA00043EA01219160102106F078FC82ED030ADF
:101AB000686810B985ED050A6E602068A0F2012003
:101AC000072811D2C0B200EB40025E48A18B00EBA8
:101AD000820049BA8180E18B49BAC180218C49BA20
:101AE000018194F822108172022100E002E0384660
:101AF000FFF710FC54483968814275D143464F4A7C
:101B000000213846FFF70DFD00286DD1207F012808
:101B100020D0022846D0032868D02068A0F20120F7
:101B2000072811D2C0B200EB40024848A18B00EB5D
:101B3000820049BA8180E18B49BAC180218C49BABF
:101B4000018194F8221081723846BDE8F0410221EB
:101B5000FFF7E0BB3949242201F18400FEF7DEFCE7
:101B6000364A34F81D0F3C3240BA1060A178F2EECC
:101B7000090A0B01E178BAEE090A43EA111353602E
:101B8000237901F00F0143EA01219160102106F051
:101B900005FC82ED030AA8680028D5D185ED060A68
:101BA000AE60D1E7254A34F81D0F543240BA1060B8
:101BB000A178F2EE090A0B01E178BAEE090A43EACC
:101BC00011135360237901F00F0143EA0121916061
:101BD000102106F0E3FB82ED030AE8680028B3D188
:101BE00085ED070AEE60AFE723E0FFE72E80134A9A
:101BF00034F81D0F6C3240BA1060A178F2EE090A79
:101C00000B01E178BAEE090A43EA11135360237914
:101C100001F00F0143EA01219160102106F0BEFBA3
:101C200082ED030A286900288ED185ED080A2E610D
:101C30008AE7BDE8F0810000006400403028002001
:101C4000080200203C0300200068004090030020B0
:101C5000704770477047000070B5044690F8200048
:101C6000012804D0606A40F40020606218E002207D
:101C700084F820002068016821F00101016000F073
:101C8000E1FA05460EE000BF00F0DCFA401B0A282E
:101C900008D9606A40F400306062052084F82000B2
:101CA000012070BD20684068C007EDD1606270BD42
:101CB00070477047704770477047704770472DE90D
:101CC000F0410446876D00F0BDFA064694F83500F1
:101CD0000025022806D08020606584F83450012059
:101CE000BDE8F0812068016821F0160101602068DC
:101CF000416921F080014161206C08B9A06C20B1DC
:101D00002068016821F0080101602068016821F065
:101D1000010101600BE000F095FA801B052806D94F
:101D20002020606504F8345F03206070D8E72068E5
:101D30000068C007EFD194F85C103F208840B8607D
:101D400004F8345F012060700020C9E790F8351076
:101D5000022903D08021416501207047052180F8C8
:101D600035100068016821F0010101600020704712
:101D70002DE9F84304464FF00009CDF80090634880
:101D80004FF41651A56D0068B0FBF1F72E6894F87A
:101D90005C10082000FA01F131420FD021680A6876
:101DA00052070BD50A6822F004020A6094F85C100E
:101DB0008840A860606D40F00100606594F85C1098
:101DC0004FF0010808FA01F0304208D02168496953
:101DD000090604D5A860606D40F00200606594F8C3
:101DE0005C1004208840304208D0216809688907C7
:101DF00004D5A860606D40F00400606594F85C1044
:101E000010208840304218D021680968090714D58D
:101E1000A86020680168490304D50068000308D55C
:101E2000A16C07E00168C90503D4016821F008012D
:101E30000160216C09B12046884794F85C1020208D
:101E40008840304231D021680968C9062DD5A86084
:101E500094F8350005282068016806D0490347D565
:101E6000006800031DD4616C1CE021F016010160C4
:101E70002068416921F080014161206C08B9A06CA3
:101E800020B12068016821F00801016094F85C101D
:101E90003F208840A86084F8349084F83580216D14
:101EA0001FE0E16B09B120468847606D00282BD008
:101EB000606DC00714D0052084F8350020680168E3
:101EC00021F0010101600098401C0090B84203D845
:101ED00020680068C007F6D184F8349084F8358013
:101EE000E16C002910D001B02046BDE8F04308475E
:101EF0000168C905D5D4016821F01001016084F89A
:101F0000349084F83580CCE7BDE8F8839C0000204D
:101F10002DE9F041044600F095F906465CB1002534
:101F200084F83450022084F835002068016821F0DC
:101F3000010101600DE00120BDE8F08100F082F9AF
:101F4000801B052805D920206065032084F8350012
:101F5000F2E720680068C007F0D1226811682048C5
:101F60000140D4E901031843D4E90336334318434D
:101F700063691843A3691843E3691843236A184344
:101F80000843616A042903D1D4E90B1319430843B8
:101F9000106020684069666A20F0070130460E43F1
:101FA000012704280CD1A06A0643E06A40B120460C
:101FB000FEF782FF20B14020606584F83570BAE7F3
:101FC000206846612046FEF763FF94F85C203F21BD
:101FD00091408160656584F835700020ACE70000B1
:101FE0003F8010F02DE9F0410446866D90F83400F2
:101FF000002501280DD0012084F8340094F83570B4
:102000000020012F07D084F8340002252846BDE8BF
:10201000F0810220FBE7022784F8357060652046D6
:10202000FEF774FF94F85C103F208840B060206891
:10203000016841F016010160206C20B12068016840
:1020400041F0080101602068016841F00101016070
:10205000DCE7000070B5044600F0F4F80546601CAB
:1020600002D004480078044400F0ECF8401BA04281
:10207000FAD370BD900000202DE9F84F00224FF0F8
:10208000010803254FF00F0E0B6808FA02F42340F5
:10209000A3426ED14E68012E05D0022E03D0112E20
:1020A00001D0122E12D186684FEA420C05FA0CF7C5
:1020B000BE43CF6807FA0CF7374387604668A643EC
:1020C0000C79C4F30014944034434460C66857004C
:1020D00005FA07FC8C6826EA0C06BC403443C46051
:1020E0004C68022C01D0122C13D1D40800EB8404CC
:1020F000A346D4F8209054074FEAD46A0EFA0AF6A1
:1021000029EA06090E6906FA0AF646EA0906CBF834
:10211000206006680C7926EA0C0604F00304BC4033
:10212000344304604C68E40060D5334C266846F4C0
:1021300080462660246822F0030604F4804400945C
:102140002E4C3444A446D4F808489607370F0EFAAC
:1021500007F6B4432A4EB04201D100261FE0294EB3
:10216000B04201D101261AE0274EB04202D1022628
:1021700015E03BE0254EB04201D103260FE0244E8E
:10218000B04201D104260AE0224EB04201D1052618
:1021900005E0214EB04201D1062600E00726BE40F0
:1021A0002643CCF808681D4E34684F689C43FF03F3
:1021B00000D51C433460194E361D34684F689C436B
:1021C000BF0300D51C433460144E083634684F6892
:1021D0009C43FF0200D51C433460104E0C3634681B
:1021E0004F689C43BF0200D51C433460521C102A28
:1021F000FFF44AAFBDE8F88F443802400030014098
:10220000000002400004024000080240000C0240AE
:10221000001002400014024000180240003C01403F
:102220000069084000D001207047426931EA02028B
:1022300000D10904816170470AB1816170470904C6
:10224000FBE7000001488068704700009000002014
:1022500070B5040025D094F83D00002520B984F81D
:102260003C50204600F0B8F8242084F83D00206857
:10227000016821F0010101602068016841F400411A
:1022800001602068016821F40041016001F0BAF9A1
:102290004D4A6168914201D84C4900E04C4988425E
:1022A00001D2012070BD4B492368B0FBF1F15E689B
:1022B00026F03F060E435E606368934206D94FF4F2
:1022C000967359434FF47A73B1FBF3F12368491CB9
:1022D0001E6A26F03F06314319626168914210D8A8
:1022E0004900401EB0FBF1F2521CC2F30B02042A5B
:1022F00001D2042022E0B0FBF1F0401CC0F30B003F
:102300001CE0A268F2B301EBC10303EB0116431E0C
:10231000B3FBF6F35B1C43F480431B0549D092B337
:1023200001EBC10202EB0111401EB0FBF1F0401CB9
:10233000C0F30B0040F4804040F400402168CA69BB
:102340004CF6FF739A431043C861D4E90710014368
:102350002068026822F0C00211430160D4E9030141
:1023600001432068826848F2FF339A431143816039
:10237000D4E9050108432168CA6822F0FF0210432E
:10238000C86001E00EE016E02068016841F001013C
:1023900001602564202084F83D00256384F83E50C8
:1023A000002070BD01EB4106431EB3FBF6F35B1C3E
:1023B000B3E70120C2E701EB4101401EB0FBF1F0A1
:1023C000401CC0F30B00B7E7A086010080841E000C
:1023D00000093D0040420F002DE9F04387B004465C
:1023E00014216846FEF7CCF822682C4C2A4B2B4867
:1023F0001225012103260427DFF8A49010349A4205
:1024000019D1026842F002020260006802AA00F0DC
:102410000200059082E8C200C020CDE900056946AF
:102420004846FFF729FE206840F40010206020682D
:1024300000F400102CE01B4B9A422AD1026842F0B3
:1024400001020260026802F001020592026842F095
:10245000020202600068884600F0020005909815AC
:102460008DE8210169461048CDE90367FFF704FEB6
:1024700010208DE8210169464846CDE90367FFF742
:10248000FBFD206840F400002060206800F400009C
:10249000059007B0BDE8F08300540040303802409A
:1024A00000040240005C00400000024002488168D5
:1024B0000278114481607047900000200B4810B5ED
:1024C000016841F400710160016841F480610160BC
:1024D000016841F480710160032000F09FF80F2033
:1024E00000F006F800F050F8002010BD003C02405B
:1024F00030B50546204887B00024016841F001014D
:102500000160006806A900F00100009001A801F038
:1025100053F80498B0B101F075F8400017494FF036
:102520008042B0FBF1F11648491E026040F2E732EA
:10253000C0E90324C0E90114846101F07DFB0400BB
:1025400003D015E001F05EF8E8E70D4801F0A4FBC8
:1025500004000DD11C2000F033F8102D07D200220A
:1025600029461C2000F03AF80648056000E00124E6
:1025700007B0204630BD00004038024040420F0006
:10258000C00B0020940000200C4882B0016841F488
:1025900080410160006800F4804000900748001FFF
:1025A000016841F0805101600068002200F0805015
:1025B00000900F21901E02B000F010B84438024085
:1025C000002809DB00F01F02012191404009800032
:1025D00000F1E020C0F8001170470000F0B40E4B8D
:1025E0001B680C46C3F30223C3F10705042D00D971
:1025F0000425191D072901D2002300E0DB1E012656
:1026000006FA05F1491E214099409E40761E16406B
:102610003143F0BC05F032BA0CED00E0064900F0A1
:10262000070208684FF6FF03184040EA0220034AF9
:1026300010430860704700000CED00E00000FA0550
:1026400001220168C0F8FC23002280F8F423886985
:1026500040F000608861486D024A104348650020E0
:10266000704700000300001070B5164D0446A1B17C
:10267000012911D12068D0F8001E41F00101C0F8F5
:10268000001ED4F8040404F067F9206A002803D07F
:10269000286840F00600286070BD206A28B103F069
:1026A0009DF8286820F0060028602068D0F8001EF9
:1026B00021F00101C0F8001ED4F80404BDE8704008
:1026C00004F0E6B810ED00E00068416200207047B9
:1026D000F0B50368586A39B19C6A4FF4827600EB12
:1026E000144400204D1E0AE040EA024098620FE0C8
:1026F00006EB8007DF59401C04EB1744C0B2A84228
:10270000F6D344EA02404FF4807202EB8101585044
:102710000020F0BDD0F8040404F025B8C1EBC102DC
:1027200000EB8202D0F80404926C03F090BFC1EB7E
:10273000C10200EB8202D0F80404D2F8082203F0B0
:10274000DBBFD0F8040404F010B870B504460B06E3
:1027500001F00F00C0EBC00104EB81014FF001025A
:102760004FF0000503D581F83D203C3103E081F8AE
:10277000FD5101F5FE71087094F8BC03012808D0E2
:1027800084F8BC23206804F08DFB84F8BC5300203F
:1027900070BD022070BD70B5044601F00F00626884
:1027A000904201D9012070BD0B0601F00F01C1EB71
:1027B000C10104EB81014FF001024FF0000503D588
:1027C00081F83D203C3103E081F8FD5101F5FE71B7
:1027D0008D70087094F8BC03012808D084F8BC23DD
:1027E000206804F057FD84F8BC53002070BD02201F
:1027F00070BD01F00F01C1EBC10100EB8100D0F809
:10280000140270472DE9F04104460F0601F00F0055
:10281000C0EBC00104EB81014FF001064FF0000551
:1028200003D581F83D603C3103E081F8FD5101F5AD
:10283000FE7108708A60CB704A7802B1C880022BA2
:1028400000D10D7194F8BC03012809D084F8BC6351
:10285000206804F083FA284684F8BC53BDE8F08170
:102860000220FBE770B50C4601F00F05C5EBC50172
:1028700000EB8101C1F81032C1F808220023C1F831
:10288000143281F8FD3181F8FC51036901F5FE71C4
:10289000012B00D10A612207027C006803D004F0FA
:1028A00051FD002070BD04F03DFCFAE770B5044610
:1028B0000D4601F00F006168884201D9012070BD0A
:1028C00029064FF000064FF0010207D5C0EBC0010A
:1028D00004EB810181F83D203C3107E0C5EBC501E7
:1028E00004EB810181F8FD6101F5FE718A700870C9
:1028F00094F8BC03012807D084F8BC23206804F0B6
:10290000F5FC280702D007E0022070BD217C04F509
:102910007172206804F092FC84F8BC63002070BDE2
:1029200070B50C4601F00F05C5EBC50100EB810148
:102930000B658A6400234B65012381F83D3001F863
:102940003C5F0369012B00D10A612207027C006809
:1029500003D004F0F7FC002070BD04F0E3FBFAE7BD
:102960002DE9FC5F05680446284604F014FE0028A3
:102970007ED1206804F03BFE002879D0206804F066
:1029800036FE800704D52068416901F002014161EB
:10299000206804F02CFEC10604F57170009034D557
:1029A0002068816921F0100181612F6A07F00F0012
:1029B000C0EBC00004EB8006C7F3434006F5FE768B
:1029C000022802D0062811D01AE047F6F07007421C
:1029D00016D0C7F30A1217462846F16804F00BFE1A
:1029E000F0683844F060B069384408E008222846AE
:1029F000009904F000FEB169C7F30A100844B06101
:102A00002068816941F010018161206804F0EFFDC8
:102A100000034FF001094FF0080B5BD5002620683A
:102A200004F0C4FD0746DFF8A4A351E0F8074DD039
:102A3000F1B2206804F0D3FD8046C00707D005EB53
:102A40004611C1F8089B3146204602F093FB5FEA2D
:102A5000087022D505EB4611C1F808BB2068026C4E
:102A600000EB46100192D0F8081B524507D900E050
:102A7000A9E1090403D54FF40041C0F8081B204622
:102A800000F0A8FA0198504507D92069012804D11F
:102A900020680121009A04F0D1FB5FEAC86004D5E8
:102AA00005EB46111020C1F8080B5FEA886004D5D9
:102AB00005EB46112020C1F8080B5FEA884005D5D8
:102AC00005EB46114FF40050C1F8080B7F08761C47
:102AD000002FABD1206804F08AFD40034FF0000ABC
:102AE0005CD5206804F05BFD0746002654E0F8073B
:102AF00050D0F1B2206804F060FD8046C00723D0BA
:102B000006F00F0209FA02F0D5F834288243C5F81E
:102B1000342805EB4610C0F80899206901280FD128
:102B2000C6EBC60004EB8000D0E91121114481649A
:102B300036B9206D20B920680121009A04F07EFB8F
:102B4000F1B22046FFF7EAFD5FEA087003D505EB16
:102B50004611C1F808B95FEAC86004D505EB461113
:102B60001020C1F808095FEA486004D505EB46115A
:102B70004020C1F808095FEA887004D505EB4611CA
:102B80000220C1F808095FEA086003D531462046F3
:102B900002F056FB7F08761C002FA8D1206804F0B5
:102BA00026FD002811DAD5F8040820F00100C5F848
:102BB000040894F8F403012839D0204600F0EEF917
:102BC0002068416901F000414161206804F00FFD77
:102BD00000050BD5D5F80808C00702D0204600F044
:102BE00021FA2068416901F400614161206804F024
:102BF000FEFC00010AD52068416901F000614161D5
:102C000094F8F403D0B1204600F00CFA206804F0E8
:102C1000EEFCC00476D5D5F8040820F00100C5F814
:102C200004081021206804F097FC002135E084F8A6
:102C3000F4A300212046FFF717FDC1E784F8F493C1
:102C40002068406D0121C0F38300C4F8F8032046DA
:102C5000FFF70AFDDAE700BF05EB41104FF67F32C0
:102C6000C0F80829D0F8003923F40013C0F800395F
:102C7000D0F8003943F00063C0F80039C0F8082BE1
:102C8000D0F8002B22F40012C0F8002BD0F8002B53
:102C900042F00062C0F8002B491C60688842DBD813
:102CA000D5F81C0840F00110C5F81C08206B60B175
:102CB000D5F8840840F00B00C5F88408D5F844081E
:102CC00040F00B00C5F844080CE0D5F8141842F2A7
:102CD0002B000143C5F81418D5F8100840F00B007C
:102CE000C5F81008D5F8000820F4FE60C5F8000803
:102CF000217C2068009A04F0A1FA2068416901F45F
:102D000080514161206804F072FC800415D5206870
:102D100004F064F8206804F031FCE06000F06CFC22
:102D20000146227B206804F09DFC204600F020F93B
:102D30002068416901F400514161206804F057FCAA
:102D4000000707D5204600F02DF92068416901F001
:102D500008014161206804F04AFCC00208D5002146
:102D6000204600F035F82068416901F48011416186
:102D7000206804F03CFC800208D50021204600F0C9
:102D80002BF82068416901F400114161206804F0CA
:102D90002EFC400007D52046FFF7BCFC20684169A7
:102DA00001F080414161206804F021FC40070AD510
:102DB00020684568680702D52046FFF7C2FC2068F6
:102DC000416829434160BDE8FC9F00000A30544F30
:102DD000D0F8040403F01ABDD0F8040403F018BDC1
:102DE0002DE9F0418AB0040005D094F8BD032668AF
:102DF000002520B108E001200AB0BDE8F08184F888
:102E0000BC53204600F064F8032084F8BD03F06B47
:102E1000C00500D42561206804F07EF904F110019A
:102E2000282288466846FDF779FB94E80F0003F0F6
:102E3000E3FF0226C8BB0021206804F0EAFB002063
:102E400001270EE0C0EBC00104EB810181F83D7069
:102E500001F83C0FC880CD708D60CD60401CC0B2C1
:102E60004D6161688142EDD8002011E0C0EBC001E6
:102E700004EB810181F8FD5181F8FC0181F8FF51DB
:102E8000C1F80452C1F80852401CC0B2C1F8105237
:102E900061688142EAD8282241466846FDF73EFB38
:102EA00094E80F0004F080F810B184F8BD63A2E745
:102EB00084F8385084F8BD73606A012802D1204636
:102EC000FFF7BEFB206804F061F8002094E70000E3
:102ED00010B59EB00446142117A8FDF751FB5C21E4
:102EE0006846FDF74DFB2068B0F1A04F39D14FF493
:102EF0008070002400901594684600F0ABF808B18B
:102F0000FEF7D6F81848016841F001010160006839
:102F100017A900F001001C904FF4C0501790022038
:102F2000CDE9180403201A900A201B900F48FFF7E0
:102F3000A3F80D48001D016841F0800101600A48B6
:102F40001430016841F4804101600068002200F4FF
:102F500080401C9005214320FFF740FB4320FFF7F2
:102F60002FFB1EB010BD00003038024000000240B0
:102F700070B50446C068012570B1022801D0FEF783
:102F800097F82946D4F8040403F098FCD4F8040414
:102F9000BDE8704003F053BC0025F2E7D0F804040C
:102FA00003F076BCD0F8040403F07CBC10B50446F2
:102FB00090F8BC0301280BD0012084F8BC0384F8EE
:102FC0003810206804F03CFB002084F8BC0310BDDE
:102FD000022010BDD0F8042400F57171104603F0F2
:102FE00079BC10B50446006894F8BC13012906D0DA
:102FF000012184F8BC13A16A012902D008E0022053
:1030000010BDA169012903D0816B41F48031816336
:10301000206804F08BFA206803F0AAFF002084F8EF
:10302000BC0310BD10B50446D0F8040403F094FCB2
:103030002068D0F8001E41F00101C0F8001E206A8F
:10304000002804D00248016841F00601016010BD6B
:1030500010ED00E02DE9F84F044600260078F84D09
:103060003746C00708D02868A16B20F0C06008432D
:103070002860A06B00B901262078800708D5286851
:10308000E16B20F0C05008432860E06B00B90126D6
:10309000207840070ED52868216B20F440100843A3
:1030A0002860206BB0F5801F01D010B102E001262E
:1030B00000E00127207800070ED52868616B20F416
:1030C000400008432860606BB0F5800F01D010B15C
:1030D00002E0012600E0012720784FF0000A800678
:1030E0004FF0010B63D5D6484C38016841F0805150
:1030F00001600068DFF84C9300F080500090D9F830
:10310000001041F48071C9F80010FFF79BF8804669
:1031100006E000BFFFF796F8A0EB080002286FD882
:10312000D9F80000C005F5D5DFF81483A8F11C0814
:10313000D8F8000010F4407024D0B4F8401001F426
:10314000407181421ED0D8F80010BF4A21F440716E
:10315000C2F800B0C2F800A0C8F80010D8F800000B
:10316000C0070FD0FFF76EF8814607E0FFF76AF857
:10317000A0EB090141F288308142D0D8D8F8000094
:103180008007F3D5216CAE48C1F301228438032AAD
:1031900037D0016821F4F811C0F80010D8F80010F9
:1031A000B4F84020C2F30B021143C8F80010207895
:1031B000C00604D5A54894F85810C0F8E01120784E
:1031C0000106A34805D50168E26C21F440011143D2
:1031D00001602178490605D50168A26C21F0806163
:1031E000114301602188C90514D50168626D21F081
:1031F000006111430160616DB1F1006F09D009E018
:103200001DE10268934B22F4F81219400A43026050
:10321000C4E701272188890505D50168626C21F082
:103220008051114301602188DFF82C92490509D5AE
:103230000168226D21F0005111430160206DB0F151
:10324000005F04D01EB92068B0F5006F7ED18349BD
:10325000C1F868A0FEF7F6FF794E80468C3E05E087
:10326000FEF7F0FFA0EB0800022886D830680001C6
:10327000F6D421687A48CA0701D0A26B1AB189072F
:1032800017D5E16BA9B901680268C1F30141491C76
:10329000D4E9013C43EA8C1321F0004CC2F30362F1
:1032A00009EB0C4141EA02610B43217D43EA0171C4
:1032B000016021684A0703D5226BB2F5801F05D053
:1032C000090721D5616BB1F5800F1DD10168026836
:1032D000C1F30141491CD4E9013C43EA8C1321F0BC
:1032E000004C09EB0C4194F810C0C2F3027241EAA1
:1032F0000C610B4343EA027101602968A26A21F064
:103300001F01521E11432960218849051AD5216DDC
:10331000B1F1005F16D101680268C1F30141491C97
:10332000D4E9013C43EA8C13D4F80CC0C2F3027216
:103330004FEA5C0809EB084C4CEA41610B4343EA55
:10334000027101602188090511D500E01FE0D4E970
:10335000011241EA8211E268530809EB0342237C1F
:1033600042EA03621143227D41EA027101603B4956
:10337000C1F868B0FEF766FF804605E0FEF762FF21
:10338000A0EB0800022874D830680001F6D5EFB32E
:10339000DFF8C880C8F870A0FEF754FF304E07462B
:1033A000843E04E0FEF74EFFC01B022861D830685F
:1033B000C0438000F6D521682A484A0701D5226B10
:1033C0001AB109071DD5616BD9B90168D4E9062383
:1033D000C1F30141491C42EA831221F0004309EB89
:1033E000034194F8243041EA03610A4302602968EA
:1033F000E26A6FF0FF0321F4F85103EB022211435C
:1034000029602188C90514D5616D00E038E0B1F16B
:10341000006F0ED10168D4E9062342EA8312236AC1
:10342000C1F303615C0809EB044343EA01610A4309
:103430000260C8F870B0FEF705FF04461CE018E013
:103440008C38024000700040400E47420010474256
:1034500094380240FFFCFF0F0000FFFF00004742CE
:103460008438024088380240FEF7ECFE001B022838
:1034700002D90320BDE8F88F3068C0438000F3D440
:103480000020F7E72DE9F0470E46050065D0DFF88C
:103490001481D8F80000F7B200F00F00B04207D254
:1034A00088F80070D8F8000000F00F00B04254D146
:1034B00028683D4C810712D5400703D5206840F4A9
:1034C000E05020602878000703D5206840F4604071
:1034D00020602068A96820F0F00008432060287868
:1034E000C0072DD0304968680839012812D0022859
:1034F00013D0032811D00968890700292DDA216823
:1035000021F0030101432160FEF79CFE814641F258
:10351000883A0EE009688903EFE709688901ECE75A
:10352000FEF790FEA0EB0901514502D90320BDE84A
:10353000F0872068696800F00C00B0EB810FEFD1D4
:10354000D8F80010404601F00F01B14207D90770CA
:10355000006800F00F00B04201D00120E7E72878B2
:10356000400705D52068E96820F4E0500843206052
:103570002878000706D52068296920F4604040EAD1
:10358000C100206000F05EF82168084AC1F3031111
:10359000515CC8400649086006480068FEF7A8FF6D
:1035A0000020C4E7003C024008380240408F000879
:1035B0009C000020940000200F2202600C4A136837
:1035C00003F003034360136803F0F00383601368A0
:1035D00003F4E053C36012684FF4E05303EAD202ED
:1035E00002610448006800F00F00086070470000A6
:1035F00008380240003C0240014800687047000063
:103600009C0000200448054900680968044AC1F389
:103610008221515CC84070479C000020083802405D
:10362000508F00080448054900680968044AC1F33E
:103630004231515CC84070479C000020083802406D
:10364000508F0008224810B5006810F00C02214885
:1036500015D02149042A11D01D4C241F082A0FD04F
:103660000C2A0CD12268236802F03F025B0221D5AC
:103670002068C0F38810A0FB010120E0084610BDBF
:103680002268236802F03F025B0205D52068C0F380
:103690008810A0FB010104E02168C1F38811A1FB9F
:1036A00000010023FCF77EFE2168C1F30141491CA3
:1036B00049000AE02168C1F38811A1FB0001002341
:1036C000FCF770FE2168C1F30271B0FBF1F010BD90
:1036D000083802400024F400001BB7002DE9F84F21
:1036E0000546DFF828B30078ABF10407C007A7F15F
:1036F000040451D0DBF800105846C1F381010129C0
:103700000FD00168C1F38101022902D13968490251
:1037100007D40068C0F38100032809D1386840024B
:1037200006D52068800337D56868002872D033E05A
:103730006868B0F5803F10D0B0F5A02F206810D099
:1037400020F480302060206820F4802020606868A9
:10375000A8B1FEF777FD06460DE0206840F4803002
:10376000F4E740F480202060F7E700BFFEF76AFD31
:10377000801B642878D820688003F7D50CE0FEF71A
:1037800061FD064605E000BFFEF75CFD801B642876
:10379000F0D820688003F7D42878DFF87492800787
:1037A0004FF0000A46D5DBF80010584611F00C0F18
:1037B0000FD00168C1F38101022902D139684902A1
:1037C00007D50068C0F38100032809D1386840029A
:1037D00006D42068800715D5E86801281AD111E0C1
:1037E000E868C0B10120C9F80000FEF72BFD0646CD
:1037F00005E000BFFEF726FD801B0228BAD820682E
:103800008007F7D52068296920F0F80040EAC10058
:1038100020600FE0F7E0C9F800A0FEF713FD0646B0
:1038200005E000BFFEF70EFD801B02281CD82068B3
:103830008007F7D42878000727D5DFF8D0817548AE
:10384000696908F16C0881B101210160FEF7FAFC99
:10385000064604E0FEF7F6FC801B022804D8D8F8E0
:1038600000008007F6D510E089E0C0F800A0FEF760
:10387000E9FC064605E000BFFEF7E4FC801B0228D9
:103880007DD8D8F800008007F6D42878400769D59D
:103890005E484FF0000838300068C0000BD45B4829
:1038A0003830016841F08051016000684FF0010834
:1038B00000F080500090584E3068C00511D4306838
:1038C00040F480703060FEF7BDFC009006E000BF61
:1038D000FEF7B8FC0099401A022850D83068C0059D
:1038E000F6D54A4EA868683601280FD005283068FA
:1038F00010D020F001003060306820F0040030600B
:10390000A868B8B1FEF79EFC00900FE0306840F068
:103910000100F4E740F004003060F7E7FEF792FCA6
:103920000099411A41F28830814264D8306880079A
:10393000F4D50EE0FEF786FC009007E0FEF782FC6F
:103940000099411A41F28830814254D8306880078A
:10395000F4D4B8F1000F05D02C483830016821F0BC
:1039600080510160A869A8B3DBF80010C1F38101A0
:10397000022948D00228C9F860A005D000E03AE04A
:10398000FEF760FC054639E0FEF75CFC064604E005
:10399000FEF758FC801B02282DD820688001F7D440
:1039A000F5E907010843E9681C4A490802EB0141AF
:1039B000AA6841EA82110843297C40EA0160297D16
:1039C00040EA017038600120C9F86000FEF73AFC57
:1039D000054606E015E000BFFEF734FC401B022858
:1039E00009D820688001F7D50BE000BFFEF72AFC5C
:1039F000401B022802D90320BDE8F88F206880010F
:103A0000F4D40020F8E70120F6E70000083802406F
:103A100000004742800E4742007000400000FFFF58
:103A200070B5040005D00025A56294F8510010B1CE
:103A300006E0012070BD84F85050204600F030F8B8
:103A4000022084F851002068016821F040010160E3
:103A5000D4E901010843D4E9031211430843616921
:103A60000843218B01F400710843E1690843216A8E
:103A70000843A16A084321680860A069042101EA9B
:103A80001040616A0843216848602068C16921F4D8
:103A90000061C1616565012084F85100002070BD9E
:103AA00070B586B0044614216846FCF769FD234EC4
:103AB000226800212248022303240525B2421AD19C
:103AC0001F4A1432166846F480561660126802F4D3
:103AD00080520592026842F001020260006802AA68
:103AE00000F00100059082E83200F020CDE90003EB
:103AF000694614481DE0144EB2421CD1104A1032DF
:103B0000166846F480461660126802F480420592F8
:103B1000026842F002020260006802AA00F002009D
:103B2000059082E832004FF44440CDE90003694635
:103B30000648FEF7A1FA06B070BD00000030014053
:103B400030380240000002400038004000040240CB
:103B50007047704710B590F83C20012A22D001220E
:103B600080F83C20CA688C6822F4407222434C687A
:103B700022F4806222430C6822F4006222430C6922
:103B800022F4805222434C6922F400522243C96934
:103B9000002322F480420A4301684A6480F83C30E2
:103BA000002010BD022010BD70B590F83C20012A05
:103BB00032D0012480F83C40022280F83D20036886
:103BC0005A689D6822F070060A6832435A60134BA7
:103BD00002689A4214D0B2F1804F11D0104B9A4231
:103BE0000ED0104B9A420BD00F4B9A4208D00F4B7D
:103BF0009A4205D00E4B9A4202D00E4B9A4204D103
:103C0000496825F080031943916080F83D40002108
:103C100080F83C10084670BD022070BD00000140D5
:103C20000004004000080040000C00400004014077
:103C3000004001400018004010B5040003D094F883
:103C40003D0010B107E0012010BD002084F83C00C9
:103C5000204600F00DF8022084F83D00211D206868
:103C600001F01CFE012084F83D00002010BD000082
:103C700008B500680649884208D10648016841F045
:103C800002010160006800F00200009008BD000021
:103C900000040040403802400168CA6842F0010256
:103CA000CA600068816801F00701062903D0016835
:103CB00041F0010101600020704770B5044690F8A2
:103CC0003C00012817D0012584F83C50022084F8DC
:103CD0003D002068826822F0770222F47F428260F1
:103CE0000868502830D00DDC20284DD005DC98B372
:103CF00010283BD148E0022070BD302844D0402835
:103D000034D139E0602828D0702806D0B0F5805F23
:103D10002CD0B0F5005F29D10AE0CB68D1E90121B0
:103D2000206801F02CFE2068816841F0770109E0ED
:103D3000CB68D1E90121206801F021FE206881686B
:103D400041F48041816011E0CA684968206801F04F
:103D5000EBFE5021206807E016E0CA684968206839
:103D600001F0F3FE6021206801F013FE84F83D505D
:103D7000002084F83C0070BDCA684968206801F0E2
:103D8000D3FE40212068EFE7226801461046EBE7AA
:103D9000704770B50446006801694FF00005C943DB
:103DA000890715D4C168C943890711D4E91E016187
:103DB00001202077206880698007204602D0FFF725
:103DC000E7FF04E000F0DAF8204600F06FF925770D
:103DD00020680169C943490717D4C168C943490725
:103DE00013D46FF0040101610220207720688069FC
:103DF00010F4407F204602D0FFF7CAFF04E000F035
:103E0000BDF8204600F052F9257720680169C943C2
:103E1000090716D4C168C943090712D46FF0080115
:103E20000161042020772068C0698007204602D005
:103E3000FFF7AEFF04E000F0A1F8204600F036F9ED
:103E4000257720680169C943C90617D4C168C943E9
:103E5000C90613D46FF01001016108202077206893
:103E6000C06910F4407F204602D0FFF791FF04E0C4
:103E700000F084F8204600F019F9257720680169E0
:103E8000C943C90708D1C168C943C90704D1891EFC
:103E90000161204600F05CF920680169C943090608
:103EA00009D4C168C943090605D46FF080010161D6
:103EB0002046FFF74DFE20680169C943490609D431
:103EC000C168C943490605D46FF04001016120462D
:103ED00000F045F920680169C94389060BD4C1681F
:103EE000C943890607D46FF0200101612046BDE86F
:103EF0007040FFF72EBE70BD10B586B00446142189
:103F00006846FCF73DFB2368174C0020174A022146
:103F1000A34210D1136843F0020313601268CDE985
:103F2000021002F0020205922022CDE90021049144
:103F300069460F4814E00F4CA34213D1136843F0B5
:103F400004031360126802F0040205924FF47072C9
:103F50000092CDE9011003900320049069460648C1
:103F6000FEF78AF806B010BD000400403038024069
:103F7000000402400004014000080240704770B590
:103F8000044690F83C000D4601280DD0012684F827
:103F90003C60022084F83D0042B1042A18D0082A6F
:103FA0002AD00C2A4DD139E0022070BD206801F0E2
:103FB000F9FC2068816941F008018161206881690C
:103FC00021F004018161206881692A69114311E0AF
:103FD000206801F017FD2068816941F4006181616A
:103FE0002068816921F480618161206881692A6982
:103FF00041EA0221816124E0206801F039FD206856
:10400000C16941F00801C1612068C16921F0040162
:10401000C1612068C1692A69114311E0206801F07B
:104020005BFD2068C16941F40061C1612068C1691C
:1040300021F48061C1612068C1692A6941EA0221D5
:10404000C16184F83D60002084F83C0070BD10B56B
:10405000040003D094F83D0010B107E0012010BD2A
:10406000002084F83C00204600F00CF8022084F880
:104070003D00211D206801F011FC012084F83D0065
:10408000002010BD08B500680649884208D10648DE
:10409000016841F002010160006800F00200009038
:1040A00008BD000000040140443802407047000091
:1040B00010B504460068012201F054FC0B49206849
:1040C000884202D00A49884203D1416C41F4004140
:1040D00041642068816801F00701062903D0016866
:1040E00041F001010160002010BD0000000001400E
:1040F0000004014010B504460068002201F032FCC3
:10410000114841F2111221689310814202D00F48E8
:10411000814209D1086A104206D1086A184203D1C7
:10412000486C20F4004048642068016A114206D1BE
:10413000016A194203D1016821F0010101600120E7
:1041400084F83D00002010BD000001400004014043
:104150000068B0F1804F01D1FEF7A8B970477047F1
:1041600010B504460068416994F83920C1F3C011C4
:10417000212A0BD151B1416921F080014161206BAD
:1041800008B1FDF79CFD204601F04FFD2068416914
:1041900094F83A20C1F38011222A0BD151B1416920
:1041A00021F040014161606B08B1FDF788FD2046B8
:1041B00001F02DFD002010BD7047000070B50268B1
:1041C00004461068D168536910F00F0F52D003F005
:1041D000010501F490762E435FD0C20705D0CA05D1
:1041E00003D5E26B42F00102E263420705D5DA072C
:1041F00003D0E26B42F00202E263820705D5DA07E0
:1042000003D0E26B42F00402E263020707D501F03B
:1042100020022A4303D0E26B42F00802E263E26B21
:10422000002A33D0800604D5880602D5204601F046
:1042300005FD20684069E16BC0F38010090700D4D8
:1042400028B3204601F0E3FC2068416949061AD5ED
:10425000416921F040014161606BA0B11B490165DA
:10426000606BFDF773FD002810D0606B016DBDE839
:1042700070400847830610D58B060ED52046BDE852
:10428000704001F0DBBC2046FFF796FF70BD204672
:10429000FFF792FF0020E06370BD030606D50B0612
:1042A00004D52046BDE8704001F0A8BD4006F3D516
:1042B0004806F1D5D168204621F04001D160202187
:1042C00084F8391000F009FA70BD00006F5B000837
:1042D00070B5040004D094F83900002510B106E050
:1042E000012070BD84F83850204600F023F82420C7
:1042F00084F839002068C16821F40051C16020466B
:1043000001F0E8FC2068016921F490410161206816
:10431000416921F02A0141612068C16841F40051DE
:10432000C160E563202084F8390084F83A00002059
:1043300070BD00002DE9F04F87B004461421684697
:10434000FCF71EF9844883492368834A1038022603
:104350000827DFF808C200254FF003088B4217D169
:10436000116841F400211160116801F400210591E8
:10437000016841F0040101600068694600F0040032
:1043800005904FF44060CDE90006049760462AE0AE
:1043900073498B422ED1116841F48011116011686C
:1043A00001F480110591016841F004010160016888
:1043B00001F004010591016841F008010160006805
:1043C000CDE9025800F0080005909814CDE90006E8
:1043D000694604976046FDF74FFE0420CDE90006CC
:1043E000604869460497CDE90258FDF745FE07B0DD
:1043F000BDE8F08FDFF870C10721DFF870B14FF032
:10440000400A4FF000674FF4806963454ED1524A2D
:10441000121D136843F010031360126802F01002BB
:104420000592026842F0010202600068029500F005
:1044300001000590CDE903814FF4C060CDE900068D
:1044400069465846FDF718FE4A4E4948B84630605E
:10445000C6E90175C6E903597561B561F561356253
:104460004F4630467562FDF753FD08B1FCF720FE5C
:104470006663B4633F4E3E4860367830C6E9035702
:104480007561B561F5613562756286E80105304692
:10449000FDF73EFD08B1FCF70BFE26630022052167
:1044A0002520B463FEF79AF825204FE0DFF8C8C056
:1044B00063459CD1136843F400331360126802F41F
:1044C00000320592026842F0010202600068029523
:1044D00000F001000590CDE903810C20CDE9000634
:1044E00069465846FDF7C8FD224E2448C036C846E6
:1044F0003060C6E90175C6E9035975614FF440396A
:10450000B561C6E9075930467562FDF701FD08B18E
:10451000FCF7CEFD6663B463194E1848C6E903582C
:104520007561B561C6E907591830756286E881047E
:104530003046FDF7EDFC08B1FCF7BAFD266300221A
:1045400005212620B463FEF749F82620FEF738F847
:104550004DE70000004C0040403802400008024097
:1045600000500040000C02400010014000000240DA
:1045700040640240A80900200044004088600240D6
:10458000C80A0020F8B5044690F83A0020283CD12B
:10459000C1B3BAB394F83800012836D0012084F8AA
:1045A0003800A162A2850025E563222084F83A0044
:1045B000636B1748D863636B16481864636B1648BF
:1045C000D864606B134605650846666B2168024631
:1045D0003046091DFDF706FD20680168416800911D
:1045E00084F83850C16841F48071C1602068416925
:1045F00041F0010141612068416941F040014161A0
:104600000020F8BDFFE70120FBE70220F9E70000EA
:10461000C95B0008055C00087F5B000870477047B5
:104620002DE9F843044690F839001F4616460D461A
:10463000202850D1B5B1AEB194F8380001284AD045
:10464000012084F838004FF00008C4F83C80212095
:1046500084F83900FDF7F6FDA6848146E68484F8E7
:10466000388026E00120BDE8F883E08C401EE0841D
:10467000A0684B46B0F5805F4FF000024FF080011C
:104680002046009703D001F0EAFBE8B90DE001F005
:10469000E6FBC8B928882168C0F308004860206993
:1046A00008B16D1C05E0AD1C03E0216815F8010B95
:1046B0004860E08C0028D8D14B460022402120469B
:1046C000009701F0CCFB08B10320CCE7202084F850
:1046D00039000020C7E70220C5E77047FEE7000069
:1046E0002DE9F04786B014216846FBF749FF002505
:1046F0004FF430400124022603958DE85100DFF885
:104700007CA069465046FDF7B7FCCDE900641C4F1C
:10471000CDE9026569463846FDF7AEFC4FF4805896
:10472000012241465046FDF787FD4FF40059012212
:1047300049465046FDF780FDA6030096CDE9015499
:1047400069465046FDF798FCCDE900456946384674
:104750000294FDF791FC012231465046FDF76CFDB5
:10476000002241465046FDF767FD0122494650466A
:10477000FDF762FD06B0BDE8F087000000040240CE
:1047800000140240F0B500230A24302537261F46C6
:1047900011E000BFB4EB107F02D905EB107C01E003
:1047A00006EB107C01F813C001EB430C00015B1C0D
:1047B0008CF80170DBB29342ECD3F0BD2DE9F047E9
:1047C0000E4607460025DFF89491C0E0785DA528E5
:1047D00073D178190446052103F03EF800286CD007
:1047E0006078A17840EA012805EB08000930B04262
:1047F00046D8204608F1090103F010F800285CD0E3
:104800006079A17940EA012040F20221A0F202225F
:10481000884261D018DCB0F5817F40D00ADC0128E5
:104820001BD0032820D005282BD0A0F5807001389C
:1048300022D12DE0B0F5827F38D0A0F58070053808
:104840003CD0FC2818D140E0092A15D2DFE802F05C
:10485000144B525960676E7577000B2080460246F4
:104860003E48E11D8F3805E02020804602463B4847
:10487000E11D8338FBF70DFE05EB08000930C5B2DA
:1048800065E00D20804602463448E11D6338F1E7BB
:104890000420804602463148E11D5638EAE70420EC
:1048A000804602462D48E11D5238E3E7022080464B
:1048B00002462A48E11D4E38DCE746E001208046EA
:1048C00002462648E11D4C38D4E71B2080460246AC
:1048D0002248E11D4B38CDE71020804602461F4894
:1048E000E11D3038C6E71020804602461B48E11D16
:1048F0002038BFE70120804602461848E11D1038E5
:10490000B8E70120804602461448E11D0F38B1E7A0
:104910000120804602461148E11D0E38AAE7072013
:10492000804602460D48E11D0D38A3E7062080466B
:1049300002460A48E11D801F9CE7042000E0062093
:1049400080460246E11D484694E76D1CEDB2B54233
:10495000FFF43CAFBDE8F04702F00ABF142C002082
:104960007FB50024154800940194029412490394E1
:1049700001604FF48031C0E901140461047680F8CD
:1049800020400F49C0E90A140125C561C46080F8C0
:1049900030404561FCF764FC08B1FCF789FBCDE9C8
:1049A0000045694605480294FCF7A8FB002801D0A1
:1049B000FCF77EFB7FBD0000002001403806002090
:1049C0000100000F0F4810B50D490160032141603F
:1049D00000214FF410228160C0E903124FF400124D
:1049E0004261017641768176C17601774177FCF7A5
:1049F0000AFF002803D0BDE81040FCF759BB10BDEA
:104A00000064004080060020104810B50E49016087
:104A10000321416000214FF08072C0E902124FF47F
:104A2000102202614FF400124261017641768176D4
:104A3000C17601774177FCF7E6FE002803D0BDE898
:104A40001040FCF735BB10BD00680040A8060020F0
:104A5000194808B5016841F400110160016801F4CA
:104A600000110091016841F480010160006800229A
:104A700000F48000009005211020FDF7AFFD10200C
:104A8000FDF79EFD002205211120FDF7A7FD112055
:104A9000FDF796FD002205213A20FDF79FFD3A2003
:104AA000FDF78EFD002205214620FDF797FDBDE8AC
:104AB00008404620FDF784BD3038024010B59CB058
:104AC0001C2216496846FBF729FD0021684603F0C1
:104AD000F3F8134C11491C2220601C3107A8FBF786
:104AE0001DFD002107A803F0E7F80C4960601C22B7
:104AF00038310EA8FBF712FD00210EA803F0DCF8F8
:104B00000649A0601C22543115A8FBF707FD0021BF
:104B100015A803F0D1F8E0601CB010BDC88E0008E5
:104B2000080000202DE9F04387B014216846FBF708
:104B300027FD3E480024016841F00401016001683E
:104B400001F004010591016841F0800101600168F4
:104B500001F080010591016841F0010101600168E7
:104B600001F001010591016841F002010160016855
:104B700001F002010591016841F00801016000683F
:104B8000DFF8AC8000F008004EF21305059000221B
:104B900029464046FDF750FBDFF898900022082197
:104BA0004846FDF749FB00950125CDE901546946CA
:104BB00040460394FDF760FA0C20CDE900046946F5
:104BC00040460294FDF758FA20200226CDE900065F
:104BD000032702940720CDE9037069464046FDF79C
:104BE0004BFACDE90074694648460294FDF744FA51
:104BF00004200090CDE9016469464846CDE90345AB
:104C0000FDF73AFAE803CDE9000469460A48029440
:104C1000FDF732FA08200090CDE901546946484674
:104C20000394FDF729FA07B0BDE8F083303802405D
:104C30000008024000040240000002400D4810B588
:104C40000B4901600C49416000214FF480428160B2
:104C5000C0E9031241618161C1610162FDF7F8FAA7
:104C6000002803D0BDE81040FCF722BA10BD0000B8
:104C700000540040D0060020801A06000D4810B5F0
:104C80000B4901600C49416000214FF48042816072
:104C9000C0E9031241618161C1610162FDF7D8FA87
:104CA000002803D0BDE81040FCF702BA10BD000098
:104CB000005C004024070020801A06000F4810B551
:104CC0000D4901604FF48271416000218160C16033
:104CD0004FF480220161C0E90512C16101624162A5
:104CE00081620A21C162FEF79BFE002803D0BDE865
:104CF0001040FCF7DDB910BD0030014078070020FE
:104D00000F4810B50D4901604FF4827141600021D8
:104D10008160C1604FF400720161C0E90512C16198
:104D20000162416281620A21C162FEF779FE0028B8
:104D300003D0BDE81040FCF7BBB910BD00380040FF
:104D4000D007002010B58EB0002407940894099471
:104D50000A940B941C2168460C94FBF711FC1E4826
:104D60001C490160A721C0E9011444F61F61C0E994
:104D700003148461FEF760FF08B1FCF799F94FF462
:104D80008050079007A91448FEF797FF08B1FCF779
:104D90008FF91148FFF75BF908B1FCF789F90B941B
:104DA0000BA90D480C94FEF7FFFE08B1FCF780F943
:104DB0006020CDE900040294042269460648049468
:104DC000FFF7DDF808B1FCF773F90348FFF794F833
:104DD0000EB010BD000400402808002010B592B0AD
:104DE00000240F941C2168461094FBF7C9FB202176
:104DF00007A8FBF7C5FB2C482A49C0E900144FF669
:104E0000FF71C0E90241046144618461FFF71FF949
:104E100008B1FCF74DF90F940FA923481094FEF741
:104E2000C3FE08B1FCF744F96020CDE90004029408
:104E3000039404940594002269461B480694FFF7E6
:104E40009EF808B1FCF734F9042269461648FFF7CA
:104E500096F808B1FCF72CF9082269461248FFF7CA
:104E60008EF808B1FCF724F90C2269460E48FFF7CA
:104E700086F808B1FCF71CF90794089409944FF4DC
:104E800000500A94CDE90B4007A907480E94FEF79D
:104E900061FE08B1FCF70CF90348FFF72DF812B0DA
:104EA00010BD000000040140680800200C4810B547
:104EB0000A4901604FF461214160002181600C22A8
:104EC000C160C0E904128161C161FFF701FA0028E5
:104ED00003D0BDE81040FCF7EBB810BD004C00401B
:104EE000A80800200C4810B50A4901604FF4612160
:104EF0004160002181600C22C160C0E9041281611F
:104F0000C161FFF7E5F9002803D0BDE81040FCF7C8
:104F1000CFB810BD00500040E80800200C4810B584
:104F20000A4901604FF4E1314160002181600C22A7
:104F3000C160C0E904128161C161FFF7C9F90028AD
:104F400003D0BDE81040FCF7B3B810BD001001401D
:104F5000280900200C4810B50A4901604FF4E131DE
:104F60004160002181600C22C160C0E904128161AE
:104F7000C161FFF7ADF9002803D0BDE81040FCF790
:104F800097B810BD004400406809002010B5002209
:104F90000F49104801F02FFB08B1FCF789F80E49C2
:104FA0000C4801F001FD08B1FCF782F80B490948F3
:104FB00001F037F908B1FCF77BF8064801F06EFD07
:104FC000002803D0BDE81040FCF772B810BD000007
:104FD0001C000020000C00207C0100207C00002030
:104FE000FEE7FEE71FB50FA10522D1E90001CDE9DB
:104FF000020102A9302000F073F805226946102052
:1050000000F014F8002069460A5CA52A03D1401C70
:10501000C0B20528F8D3052802D0012004B010BD85
:105020000020FBE7A5A5A5A5A50000002DE9F047F8
:10503000DFF8409015460F4604464FF40058002212
:1050400041464846FDF7F8F8204600F0EDF90646DF
:10505000002405E0002000F0E7F93855641CE4B2B4
:10506000AC42F7D3012241464846FDF7E5F8304609
:10507000BDE8F0870004024070B50B4E04464FF4C3
:105080000055002229463046FDF7D6F8204600F0AC
:10509000CBF9002000F0C8F9044601222946304629
:1050A000FDF7CAF8204670BD0004024070B5054601
:1050B0000720FFF7E1FF04460146272000F036F8FD
:1050C00060060AD5202229466120FFF7AFFFFF21A5
:1050D000E22000F02BF8002070BD012070BD000020
:1050E0002DE9F047DFF8409016460D4604464FF490
:1050F0000058002241464846FDF79EF8204600F041
:1051000093F90746002405E015F8010B00F08CF92F
:10511000641CE4B2B442F7D3012241464846FDF78D
:105120008BF83846BDE8F087000402402DE9F041D5
:105130000C4E0F4604464FF40055002229463046D7
:10514000FDF77AF8204600F06FF90446384600F083
:105150006BF9012229463046FDF76EF82046BDE87E
:10516000F0810000000402400148FDF7F9BB000097
:10517000F02200202DE9F04103680D4604461E6C24
:1051800003EB4511D1F8080BD4F810E04FF40047B9
:105190004FF0200C04F57172BEF1010F09D0DFF859
:1051A00098E0764539D1020432D500BFC1F8087BBA
:1051B0003FE0224B5FEA007E04D59E4239D90004CD
:1051C000F4D436E05FEA806E02D5C1F808CB30E057
:1051D00010F0280F2DD19E4201D90004E6D4C5EB72
:1051E000C50004EB8000D1F8101BD0F80432C1F3E5
:1051F0001201591AC0F81412D0F808121944C0F854
:10520000081295B9D4F8100278B9012120680AE093
:1052100080060AD5C1F808CB07E035B9D4F81002EA
:1052200018B90021184602F009F8E9B22046FDF746
:105230007EFA0020BDE8F0810A31544F0A30544F05
:105240002DE9F84F0E46C1EBC60100EB8104814603
:105250000568D4E914103C34884202D90120BDE825
:10526000F88F081AA168814200D20846C01C87083E
:1052700005EB46181BE000BFA0EB010AA0685045F3
:1052800000D282460AF10300870899F810000090C6
:105290001FFA8AF3F2B22846E16802F057FAE16891
:1052A00001EB0A00E060A16901EB0A00A061D8F8F7
:1052B000180980B2B84205D3D4E90501814201D270
:1052C0000028D9D1D4E90501884208D806F00F0199
:1052D00001208840D5F834188143C5F834180020DF
:1052E000BDE70000194910B5086000208860C8605B
:1052F00010EE103A082008610B76180A4876180C50
:105300008876180E10EE902AC8760A77100A487729
:10531000100C8877100EC87701F11802012314468B
:105320000B48FCF709F800280FD002232246074952
:105330000748FCF701F8002807D02246BDE81040D6
:10534000042302490248FBF7F7BF10BD002B0020E1
:1053500080060020194910B5086000208860C860E8
:1053600010EE103A082008610B76180A4876180CDF
:105370008876180E10EE902AC8760A77100A4877B9
:10538000100C8877100EC87701F11802012314461B
:105390000B48FBF7D1FF00280FD002232246074914
:1053A0000748FBF7C9FF002807D02246BDE8104098
:1053B000042302490248FBF7BFBF10BD202B002089
:1053C000A806002070B5164D4FF4805400222146E7
:1053D0002846FCF731FF052212492A20FFF780FEFC
:1053E00001212120FFF7A2FE01212220FFF79EFECE
:1053F00028212520FFF79AFE20213120FFF796FE75
:105400000F212620FFF792FE0F212020FFF78EFEAE
:1054100021462846BDE870400122FCF70DBF000080
:10542000000402405D8F00082DE9F041DFF85C8048
:10543000174F044600254FF40046200601D50122EF
:1054400000E0002202214046FCF7F6FE6006040E52
:10545000012231463846FCF7EFFEFF20FBF7AAFD9C
:1054600001214046FCF7DCFE08B144F001040022B3
:1054700031463846FCF7E0FEFF20FBF79BFD6D1C34
:10548000ADB2082DD9D32046BDE8F081001402400A
:10549000000402400178407841EA00207047FFF79D
:1054A00075FD012002F0FCFBFBE700002DED048BF5
:1054B00084B008216A48FEF7FBFD694C4FF4FA609E
:1054C0002168C863FCF7C6FD08212046FEF712FEDE
:1054D00021684FF47A70C86308212046FEF7E8FD82
:1054E000012002F0DDFBFBF725FD012002F0D8FBD7
:1054F000B2EE042AF2EE041A9FED5A8AB0EE481A70
:10550000DFED598AB0EE080A5848F0EE680A02F05A
:1055100050FC5648B2EE042AF2EE041AB0EE481AD5
:10552000F0EE680AB1EE040A343002F042FCDFED1E
:10553000501AB0EE612A9FED4F1A4C48F0EE680AFF
:10554000B1EE080A683002F034FCB0EE002AF0EE4A
:10555000001AB7EE001AF0EE480A9FED470A4348DA
:105560009C3002F026FC9FED459AB0EE492ADFED13
:10557000449AF0EE691ADFED438A3C48B2EE040A21
:10558000B0EE681AF0EE680AD03002F012FCB0EE0D
:10559000492AF0EE691AB0EE681AF0EE480AB2EE47
:1055A000040A394802F005FC384E394C394FDFF80F
:1055B000E880DFF8E890DFF8E8A0DFF8E8B0002541
:1055C00096ED000AB5EEC00AF1EE10FA02D0A07A0C
:1055D000012805D0A07A032805D0022806D007E0CC
:1055E000FBF7D2F904E0FBF7C3F801E002F048F959
:1055F00097ED030A2C488DED000A98ED030A4FF051
:10560000FF338DED010A90ED030A10228DED020AA1
:1056100099ED030A69468DED030A2448FFF700F867
:10562000012002F03DFB02F083FA9AF800009BF89B
:105630000010084301D11E4805801E481E4900780D
:105640000978084302D11A4808300580012002F089
:1056500027FB02F023FA012002F022FBB0E7000052
:1056600068080020CDCCCC3D0AD7233CF82600208A
:10567000000048420000C8420000A441007C92485B
:105680000060EA4600000000FC2700200002002025
:105690001E2C0020542800206C2800209C2800206C
:1056A0006E0200206F02002084280020680900207C
:1056B000E001002072020020770200201D480068EF
:1056C000C16841F01001C16064221B491948FEF70E
:1056D00059FF1A4E1A4D1B4F00243078012824D14F
:1056E0002878122805D1144802F08EFD3888401C15
:1056F000388034700020104902E00C54401CC0B2C5
:105700002A789042F9D32C7064220B490948FEF79D
:1057100039FF3888322808D14FF480610A48FCF7F5
:1057200084FD0A493C8001200870012002F0B8FA8B
:10573000D3E7000028090020D80200200200002042
:105740000100002004000020001C02400000002096
:1057500088B0FEF7C5FFFFF745FC144C012500B1EA
:105760006561FFF72FFE022620216846FAF708FF41
:105770006846FFF79BFC08B9C4E904569DF8000091
:10578000AB280FD19DF81100CD280BD1DDF8010019
:105790002060DDF80500E060DDF80900A060DDF8BC
:1057A0000D006060012002F07BFADDE7F0010020CF
:1057B00010B5502080F31188BFF34F8FBFF36F8F68
:1057C00003F028F818B104494FF080500860002019
:1057D00080F3118810BD000004ED00E030B593B0F7
:1057E00034216846FAF7CCFE14210DA8FAF7C8FE5A
:1057F0001E480025016841F080510160006800F0FA
:10580000805012901A48016841F4404101600068DC
:10581000022400F440401290012000900004019006
:105820008001CDE9064006200890A820CDE90904B2
:105830000720CDE90B046846FDF750FF08B172B6AA
:10584000FEE70DA90F2081E831004FF4A050109021
:105850004FF48050119005210DA8FDF713FE00288C
:1058600001D072B6FEE713B030BD000040380240F0
:10587000007000400548016841F47001016003496F
:105880004FF00060803908607047000088ED00E04C
:105890000148FEF77EBA0000C00B0020F0B5026898
:1058A000254C264D264E274F274B4FF0804CA042CB
:1058B00009D0604507D0A84205D0B04203D0B84215
:1058C00001D0984204D122F0700E4A6842EA0E02DA
:1058D000A0421BD0604519D0A84217D0B04215D0C5
:1058E000B84213D0984211D0184DA8420ED0184D8E
:1058F000A8420BD0174DA84208D0174DA84205D09A
:10590000164DA84202D0164DA84203D122F440758C
:10591000CA682A434D6922F080022A4302608A68DD
:10592000C2620A688262A04201D0984201D109692C
:10593000016301214161F0BD00000140000400400D
:1059400000080040000C00400004014000400140FD
:10595000004401400048014000180040001C004085
:105960000020004010B501F01F030121046A994096
:105970008C430462016A9A401143016210BD10B564
:10598000846842EA032224F47F440A43224382606B
:1059900010BD826822F070020A4342F00701816064
:1059A00070470000F0B5026A22F001020262036A49
:1059B00042688469124E24F073050C682C4323F06E
:1059C00002058B682B430D4DA84201D0B04205D192
:1059D00023F00807CB683B4323F00403A84201D01F
:1059E000B04205D14D6922F4407215438A692A43B9
:1059F00042608461496841630362F0BD0000014078
:105A000000040140F0B5026A22F010020262026A4C
:105A1000436884690D6824F4E64444EA05248D68EB
:105A200022F0200242EA05120F4D104EA84201D08A
:105A3000B04206D1CF6822F0800242EA071222F07B
:105A40004002A84201D0B04207D14D6923F440631F
:105A500043EA85038D6943EA8503436084614968AD
:105A600081630262F0BD00000000014000040140BB
:105A7000F0B5026A22F480720262026A4368C46965
:105A800022F4007224F073050C68124E2C438D68CA
:105A900042EA05220E4DA84201D0B04206D1CF689D
:105AA00022F4006242EA072222F48062A84201D076
:105AB000B04207D14D6923F4405343EA05138D6981
:105AC00043EA05134360C4614968C1630262F0BDE3
:105AD000000001400004014030B5026A22F4805207
